:020000040800F2
:10000000708600209D01000827120008D70D000807
:10001000AF110008190A00087D4E0008000000001A
:10002000000000000000000000000000BD440008C7
:10003000A90B0008000000008F0700083525000804
:10004000B7010008B7010008B7010008B7010008B0
:10005000B7010008B7010008B7010008B7010008A0
:10006000B7010008B7010008B7010008B701000890
:10007000B7010008B7010008B7010008B701000880
:10008000B7010008B7010008B7010008B701000870
:10009000B7010008B7010008B7010008B701000860
:1000A000B7010008B7010008B7010008B701000850
:1000B000B7010008B7010008B7010008B701000840
:1000C000B7010008B7010008B7010008B701000830
:1000D000B701000881490008B5490008E94900084E
:1000E000B7010008B7010008B7010008B701000810
:1000F000B7010008B7010008B7010008B701000800
:10010000B7010008FD420008B7010008B701000868
:10011000B7010008B7010008B7010008B7010008DF
:10012000B7010008B7010008B70100086D0B00080F
:10013000B7010008B7010008B7010008B7010008BF
:10014000B7010008B7010008B7010008B7010008AF
:10015000B7010008B7010008B70100081D4A0008F0
:10016000B7010008B7010008B7010008B70100088F
:10017000B7010008B7010008B7010008B70100087F
:10018000B7010008B7010008DFF80CD000F0C0FA92
:1001900000480047E96F0008708600200648804745
:1001A00006480047FEE7FEE7FEE7FEE7FEE7FEE75C
:1001B000FEE7FEE7FEE7FEE7AD450008890100081F
:1001C00072B6704762B67047EFF3108072B6704730
:1001D00080F31088704730BF704720BF7047B0FA77
:1001E00080F0704790FAA0F0B0FA80F0704790FA73
:1001F000A0F070472DE9F05F0546002092469B462F
:1002000088460646814640241BE02846414647462C
:10021000224600F058F853465A46C01A914110D36E
:1002200011461846224600F03FF82D1A67EB0108E8
:100230004F4622460120002100F036F817EB000956
:100240004E41201EA4F10104DFDC484631462A4617
:100250004346BDE8F09F00F0004230F000400AD075
:10026000C10D01F56071C0F3160042EA0151C208E8
:1002700040071143704700200146704730B50B46D8
:10028000014600202022012409E021FA02F59D42C6
:1002900005D303FA02F5491B04FA02F52844151E9A
:1002A000A2F10102F1DC30BD202A04DB203A00FA81
:1002B00002F1002070479140C2F1200320FA03F3BD
:1002C000194390407047202A04DB203A21FA02F0BB
:1002D0000021704721FA02F3D040C2F12002914080
:1002E00008431946704710B5141E73F1000408DA6C
:1002F000401C41F1000192185B411A4301D120F0EA
:10030000010010BD2DE9F04D92469B4611B1B1FAA6
:1003100081F202E0B0FA80F220329046FFF7C4FF8B
:1003200004460F4640EA0A0041EA0B0153465A468A
:10033000084313D0114653EA010019D0C8F1400216
:100340005046FFF7C0FF05460E4650465946424606
:10035000FFF7AAFF084305D0012004E020463946F4
:10036000BDE8F08D0020054346EAE0762C43374394
:100370000A986305E40AA0EB08000022FD0A44EA9B
:1003800047540A3002D500200146E9E7010510195B
:100390006941DDE9084500196941BDE8F04DA2E772
:1003A0002DE9FE4F804681EA0300C00F0C46009005
:1003B00021F0004123F00045B8EB0200A94105D22D
:1003C0004046214690461C460B46024623F000401C
:1003D000104347D0270DC7F30A00C3F30A51029018
:1003E000401A019040286BDAC3F3130040F4801BDD
:1003F0000098924620B10023D2EB030A63EB0B0B6B
:1004000001985946C0F140025046FFF74DFF06469D
:100410000D4650465946019A00F08CF910EB080041
:100420006141002487EA115284EAE7731A4340D0FD
:10043000009A62B3019A012A4FEA075215DC001BA9
:1004400061EB02014FF0004202EA0752CDE900429F
:10045000001C41F5801132462B46FFF753FF03B0D5
:10046000BDE8F08F40462146F9E7001B61EB020131
:10047000001C41F5801300185B412018A2F50017FD
:1004800047EB030140EAD570B6196D4111E06D08E4
:100490004FEA360645EAC0754FEA0752001B61EB8A
:1004A0000201001C41F5801149084FEA3000001993
:1004B000514132462B4603B0BDE8F04FFFF713BF62
:1004C0000098012240000023D0EB020263EBE073AE
:1004D000009821464FEAE074B8EB000061EB04019C
:1004E000E9E783F000435BE781F0004158E72DE93D
:1004F000FE4F81EA030404F0004421F0004100941F
:100500004FF0000B23F0004350EA01045ED052EAA2
:1005100003045BD0C3F30A54C1F30A552C44A4F27C
:10052000F3340194A0FB0254C1F3130141F4801190
:10053000C3F3130343F4801301FB024400FB034E97
:10054000840A970A44EA815447EA8357A4FB076860
:1005500002958D0A05FB07854FEA932C04FB0C548A
:100560002705029D4FEA065847EA1637B5EB0805FE
:100570006EEB070C870E920E47EA811742EA831250
:10058000A7FB0201B6EB0B0164EB00042B0D43EA61
:100590000C335E1844EB1C50DA465146E7FB02016F
:1005A000C5F313044FEA0B3343EA14534FEA043202
:1005B000019C43EA0603A4F10C040294009CCDE9DB
:1005C00000B4FFF79FFE03B0BDE8F08F00200146A6
:1005D000F9E72DE9F04D81EA030404F0004B21F026
:1005E000004514464FF0000A23F0004150EA05028E
:1005F00020D054EA01021DD0C5F30A570246C5F3C4
:100600001303C1F31300C1F30A5640F4801543F4F9
:100610008013A7EB0608101BD64608F2FD3873EBD3
:10062000050002D308F1010801E092185B41B8F11E
:10063000000F03DA00200146BDE8F08D00204FF4E2
:100640008011064684460EE0171B73EB050705D3A1
:10065000121B63EB050306434CEA010C49084FEA01
:10066000300092185B4150EA0107EDD152EA0300D5
:1006700012D082EA040083EA0501084305D0101B6A
:10068000AB4106D20122002306E000224FF00043D6
:1006900002E06FF0010253101AEB06004CEB085118
:1006A00010EB0A0041EB0B01BDE8F04DFFF71BBE5C
:1006B000C1F30A52C1F3130140F2FF3341F4801138
:1006C0009A4202DA00200146704740F233439A42D0
:1006D000A2F2334202DC5242FFF7F5BDFFF7E4BD60
:1006E00030B5041E71F1000404DB4FF000444042B9
:1006F00064EB0101141E73F1000405DB1C464FF08E
:100700000043524263EB0403994208BF904230BD5C
:10071000064C074D06E0E06840F0010394E807004E
:1007200098471034AC42F6D3FFF732FD80730008CF
:10073000A0730008202A06DBCB17203A41FA02F00A
:1007400043EAE07306E041FA02F3D040C2F120022E
:10075000914008431946704721484FF0FF0101704E
:10076000002080F309881F48016881F308881E482B
:100770004FF08051016062B6FEE71B484FF0805198
:100780000160704718484FF080510160704772B6A1
:10079000EFF3098050B11EF0100F08BF20ED108A52
:1007A000734620E9F80F11490968086000B5104840
:1007B00080475DF804EB0F480F490A7802700B4838
:1007C0000E490A6802601068B0E8F80F9E461EF0F5
:1007D000100F08BFB0EC108A80F3098862B670472A
:1007E00022ED00E0E400002004ED00E0DC00002049
:1007F000012200087A0000207B000020E000002099
:1008000010B503A20021054800F093F810BD0000C8
:1008100053454D5F53594E4348000000303300208C
:1008200005E0022005F092FB642000F0A1F8F8E753
:1008300000B58BB00AA8032100220592CDE906215C
:10084000089010464FF480616622134BCDE90132C7
:10085000CDE9031004200023104A11A10090144890
:1008600001F00CF90AA8032100220592CDE9062126
:10087000089010464FF4806166220E4BCDE901329C
:10088000CDE90310052000230B4A0CA100900F486E
:1008900001F0F4F80BB000BD701200202108000830
:1008A000417070205461736B20434F4D0000000075
:1008B000B011002030230020F108000841707020A2
:1008C0005461736B20557365724946007022002095
:1008D00038B5044600F0A2F805F0FCF800F068F81E
:1008E000684601F049F8FFF7A3FFFFF789FF38BD1D
:1008F00014E005F0D5F804466CB1012C02D0042CAC
:1009000007D102E000F052F904E0054800F022F8B7
:1009100000E000BF00BF142000F02AF8E9E7000063
:10092000303300201FB5684603F03AFC019804B04C
:1009300010BDF8B506460C4615466B4622462946BC
:10094000304600F0DFFEBDF8000008B10020F8BD21
:100950000120FCE738B504466A460021204600F035
:1009600011FFBDF8000008B1002038BD0120FCE7F0
:10097000FEB5044642F21070844200D90446B4F534
:100980007A7F09D34FF47A70B4FBF0F100FB114584
:10099000B4FBF0F086B201E0A5B2002602A8002167
:1009A0002B463246CDE90010084601F0BDFCFEBDE5
:1009B0002DE9F041FFF7B6FF054614480068B5FB86
:1009C000F0F42146481EB0F1807F00D31BE0481EA2
:1009D0004FF0E022506150170F22002807DA13076A
:1009E0001F0E0B4B00F00F06361F9F5503E0130739
:1009F0001E0E084B1E5400BF00204FF0E0229061F5
:100A00000720106100BFBDE8F081000060710008A0
:100A100018ED00E000E400E000BFFEE710B500F0D4
:100A20001FF800F019F810BD10B5002400BF00BF7A
:100A3000FFF7CAFB044600BF00BF1021054800F0C5
:100A4000B8FB00BF00BF2046FFF7C2FB00BF00BFDE
:100A500010BD0000FC68002010B5FFF7E5FF10BDD9
:100A600010B500200249086000F00AF810BD00002F
:100A70003400002001490860704700003400002065
:100A800010B5FFF74FFF04460848006840F080703B
:100A9000064908600020064948600846006840F0A2
:100AA000010008602046FFF7E5FF10BDFCED00E007
:100AB000001000E00149486870470000001000E0A5
:100AC000014609B90B487047012901D10A48FAE7E4
:100AD000022901D10948F6E7032901D10020F2E7F4
:100AE000042901D10020EEE7052901D10448EAE7F5
:100AF0000020E8E75C38002084400020AC4800205B
:100B0000D450002008B525208DF8000002208DF873
:100B1000010000208DF8020001208DF803006846D6
:100B200000F082FB26208DF8000001208DF80200E5
:100B30008DF80300684600F077FB27208DF8000051
:100B400002208DF8020001208DF80300684600F0B5
:100B50006BFB47208DF8000005208DF80200012076
:100B60008DF80300684600F05FFB08BD10B503F088
:100B7000D9FB10BD0246094B9A4201D2084801E058
:100B80000648103801F000531BB1064B0B40C36000
:100B900002E0044B0B408360704700001064024089
:100BA000006002407D0F7D0F7047000070B52DED95
:100BB000048B86B0002500BF00BFFFF705FB05468C
:100BC00000BF00BF2648046800BF00BF2846FFF7EB
:100BD000FFFA00BF00BF234804F084FA22A004F00B
:100BE00081FA2DA004F07EFA34E034F88C0F00EE88
:100BF000100AB8EE400ADFED340A80EE208A18EEC3
:100C0000100AFFF728FB41EC190BD4E90801014455
:100C100064225043B0FBF1F654F86C0C04908DED57
:100C2000029B009614F8551CD4E908238C3C27A09D
:100C300004F058FA00BF00BFFFF7C6FA054600BF30
:100C400000BFD4F8B84000BF00BF2846FFF7C0FA85
:100C500000BF00BF002CC8D106B0BDEC048B70BD36
:100C6000B40000203C73000820D3C5CFC8BCB62018
:100C7000CAB9D3C3D5BB20CAA3D3E0D5BB20B0D952
:100C8000B7D6B1C820C0FBD3C3C2CA202020C8CE6B
:100C9000CEF1C3FB0D0A000020205072696F2020A6
:100CA00020557365642020467265652020205065BC
:100CB0007220202020435055202020202054617392
:100CC0006B6E616D650D0A000000C8422020202572
:100CD00032642020253564202025356420202025FD
:100CE000303264252520202025352E32662525200A
:100CF000202025730D0A0000F0B50A4600210023CC
:100D0000002400BF3DE0012505FA01F3156805EA5E
:100D100003049C4234D105684F000326BE40B5430E
:100D2000056015794E00B5400668354305601579B4
:100D3000012D02D01579022D16D185684F000326AA
:100D4000BE40B543856055794E00B5408668354351
:100D50008560456801268E40B543456045689679B3
:100D60008E40B6B235434560C5684F000326BE408D
:100D7000B543C560D5794E00B540C6683543C560FA
:100D8000491C1029BFD3F0BDF0B5002300244D0746
:100D9000ED0E02FA05F3CE1000F1200555F82650AD
:100DA0004E07F70E0F26BE40B543CF1000F12006C8
:100DB00046F82750CE1000F1200555F8265045EA98
:100DC0000304CE1000F1200545F82640F0BD418314
:100DD00070470183704700BFFEE7000000B587B091
:100DE0000121084603F0ACF90121102003F0C8F9F5
:100DF00007220921AA48FFF7C7FF07220A21A848AE
:100E0000FFF7C2FF00208DF81A0001208DF81B00AB
:100E100002208DF818000002059002208DF81900BC
:100E200005A99F48FFF768FF02208DF818004002CF
:100E3000059005A99A48FFF75FFF4FF4E130019054
:100E40000020ADF80800ADF80A00ADF80C00ADF8D0
:100E500010000C20ADF80E0001A9924803F05CFED2
:100E6000012240F225518F4803F031FE01218D48C7
:100E700003F0F7FD40218B4803F0EAFD012108460D
:100E800003F05EF90121480403F06AF90722032107
:100E90008348FFF779FF00208DF81A0001208DF8B4
:100EA0001B0002208DF818008DF81800082005900E
:100EB00002208DF8190005A97948FFF71DFF4FF4AE
:100EC000165001900020ADF80800ADF80A00ADF80A
:100ED0000C00ADF810000420ADF80E0001A9724816
:100EE00003F01AFE012240F225516F4803F0EFFD96
:100EF00001216D4803F0B5FD40216B4803F0A8FDCA
:100F00000121022003F01CF901208DF818000020B7
:100F10008DF81A008DF81B0003208DF819000420AD
:100F2000059005A96148FFF7E7FE0121022003F0C3
:100F300007F90121880403F013F907220A215B480D
:100F4000FFF722FF07220B215848FFF71DFF002063
:100F50008DF81A0001208DF81B0002208DF8180072
:100F60004002059002208DF8190005A94F48FFF7AF
:100F7000C3FE02208DF818008002059005A94B4899
:100F8000FFF7BAFE4FF4165001900020ADF80800AC
:100F9000ADF80A00ADF80C00ADF810000C20ADF86B
:100FA0000E0001A9424803F0B7FD012240F225518D
:100FB0003F4803F08CFD01213D4803F052FD4021E4
:100FC0003B4803F045FD0121442003F0B9F801211D
:100FD000202003F0D5F808220E213648FFF7D4FE72
:100FE000082207213448FFF7CFFE08221146314876
:100FF000FFF7CAFE08220F212E48FFF7C5FE00208A
:101000008DF81A0001208DF81B0002208DF81800C1
:101010004003059002208DF8190005A92548FFF727
:101020006BFE02208DF818008020059005A922484B
:10103000FFF762FE02208DF81800C001059005A997
:101040001C48FFF759FE02208DF818008003059018
:1010500005A91848FFF750FE4FF4E1300190002039
:10106000ADF80800ADF80A00ADF80C00ADF81000BE
:101070000C20ADF80E0001A9104803F04DFD01222F
:1010800040F225510D4803F022FD01210B4803F0E9
:10109000E8FC4021094803F0DBFC07B000BD00007C
:1010A00000000240001001400044004000040240E3
:1010B00000480040001802400008024000140140AF
:1010C0000448006900F4807008B9012070470020CE
:1010D000FCE700000020024010B5FFF7F1FF20B14F
:1010E00000F006F808B1012010BD0020FCE7000068
:1010F0000448006800F4005008B90120704700203F
:10110000FCE70000100802400448006900F4006099
:1011100008B9012070470020FCE7000000200240D1
:101120000448006800F0040008B90120704700205E
:10113000FCE70000101C02400448006800F00800B2
:1011400008B9012070470020FCE70000101C024095
:101150000448006800F4006008B9012070470020CE
:10116000FCE70000101402400448006800F0800012
:1011700008B9012070470020FCE700001018024069
:101180000448006800F4004008B9012070470020BE
:10119000FCE70000101C024010B5FFF791FF20B1E2
:1011A000FFF7A6FF08B1012010BD0020FCE700BF3B
:1011B000FEE730B505460C4622460021284600F0E1
:1011C00001F830BD2DE9F04103460C4617460FB932
:1011D000BDE8F08103B9FBE70025002202E02D0203
:1011E0002543521C042AFAD3384603F0030C19464F
:1011F000BCF1000F08D0624603E001F8014B401E2D
:10120000521C08B1042AF8D30E4601E020C6001F84
:101210000428FBD2314602E001F8014B401E0028B1
:10122000FAD100BFD4E7704770B5002100230F2228
:10123000C4781CB3174C246804F4E064C4F5E0647B
:10124000C4F30721C1F10404E3B20A4144789C408D
:10125000E1B28478144021430C07210E0E4C05782E
:101260006155047804F01F050124AC4005786D1128
:10127000AD0005F1E025C5F8004109E0047804F06F
:101280001F050124AC40054D0678761145F826402F
:1012900070BD00000CED00E000E400E080E100E043
:1012A00002490143024A1160704700000000FA053C
:1012B0000CED00E07047000010B50348006810B165
:1012C00001480068804710BD4C00002070B50446FE
:1012D00000F0B0F8002042490870424908704249C5
:1012E0000870424908604249086042490870424912
:1012F00008704249087042490870424800680A2153
:10130000B0FBF1F0404908604048006858B14048DF
:10131000056845B13D48066803E0761E0020286058
:101320002D1D002EF9D100203A4908603A49086085
:101330003A4908603A4908603A4908603A49086001
:101340003A4908603A49087001F04EFC01F088FC07
:10135000204601F0E1F9208800B170BD204601F07F
:1013600041FA208800B1F8E7204601F047FA2088CA
:1013700000B1F2E7204601F0A9FA208800B1ECE7BD
:10138000204601F061FC208800B1E6E7204601F02C
:101390009DFD208800B1E0E7204602F069F8208832
:1013A00000B1DAE7204601F0E5F9208800B1D4E782
:1013B000204602F0D3FC208800B1CEE7204601F0A1
:1013C0009BFF208800B1C8E7204602F023FD20885B
:1013D00000B1C2E701F0CAF8FFF76CFF00BFBCE73D
:1013E000600000206100002086000020DC0000205A
:1013F000E00000207A0000207B0000207C0000201C
:101400008C00002060710008880000203071000806
:101410002C710008400000204400002048000020FB
:101420004C000020500000205400002058000020F4
:10143000BA000020064800680649096800EB8100F0
:10144000054908600846006820F0070008607047FA
:101450002C71000830710008E40000200848007872
:10146000012800D0704707480078FA2800DBF9E728
:1014700004480078401C0349087000BFF2E70000F0
:10148000610000206000002010B500242D48007885
:10149000012800D010BD00BFFEF796FE044600BF35
:1014A0002948007828B900BF2046FEF791FE00BF0A
:1014B000F0E725480078401E234908700846007868
:1014C000002805DD00BF2046FEF782FE00BFE1E7F1
:1014D0001E480078002805DD00BF2046FEF778FE94
:1014E00000BFD7E701F06CFB194908700846007887
:1014F00000EB4000174951F82000174908600846E2
:10150000006816490968884205D100BF2046FEF7E9
:101510005FFE00BFBEE710480068D0F89000401C96
:101520000D490968C1F890000D480068401C0C493D
:101530000860FFF727F900BF2046FEF749FE00BF0D
:1015400000BFA7E7610000206000002086000020A7
:101550007B000020207D0020E0000020DC00002037
:10156000B000002010B500241F480078002800DDDE
:1015700010BD1E480078002800DDF9E700BFFEF727
:1015800023FE044600BF01F01BFB19490870084602
:10159000007800EB4000174951F820001649086018
:1015A0000846006815490968884205D100BF2046F1
:1015B000FEF70EFE00BFDBE70F480068D0F8900092
:1015C000401C0D490968C1F890000D480068401C96
:1015D0000B490860FFF7D1F800BF2046FEF7F8FD81
:1015E00000BF00BFC4E700006000002086000020AC
:1015F0007B000020207D0020E0000020DC00002097
:10160000B000002070B50446002517480078002877
:1016100003DD46F66250208070BD14480078012832
:1016200003D045F689602080F6E711480078FA2853
:1016300003DB45F209202080EEE700BF00BFFEF784
:10164000C3FD054600BF00BF09480078401C08499B
:10165000087000BF00BF2846FEF7BAFD00BF00BFFC
:101660000020208000BFD7E760000020610000203C
:101670008600002070B5044600251F480078002829
:1016800003DD46F66550208070BD1C4800780128B7
:1016900003D045F689602080F6E71948007818B92C
:1016A00046F664502080EFE700BF00BFFEF78CFDD8
:1016B000054600BF00BF12480078401E1049087060
:1016C0000846007800280ADD00BF00BF2846FEF764
:1016D0007FFD00BF00BF46F663502080D4E700BF07
:1016E00000BF2846FEF774FD00BF00BFFFF73AFFBA
:1016F0000020208000BFC7E76000002061000020BC
:10170000860000202DE9F04104460E4617461D468E
:101710004FF0000818480078002804DD42F6E16028
:101720002880BDE8F0811CB945F6C3502880F8E751
:1017300000BF00BFFEF748FD804600BF00BF0F4856
:101740002060276200206062666004F1080001F0FA
:1017500051F9204601F0A2FB09480088401C0849C5
:10176000088000BF00BF4046FEF732FD00BF00BF4B
:101770000020288000BFD4E76000002053454D4181
:10178000940000202DE9F04105460E4614462DB97F
:1017900045F6C35020800020BDE8F0814EB1B6F57B
:1017A000007F07D0B6F5004F05D0B6F5024F04D143
:1017B00002E000BF00BF00BF04E045F625602080C6
:1017C0000020E9E700BF0A492868884204D045F6AE
:1017D000C45020800020DFE7FFF76CF980462346E5
:1017E00042463146284601F07DFB07463846D3E79E
:1017F00053454D4110B5044612480078E8B901F050
:10180000DFF91149087008460078104908700E4841
:10181000007800EB40000E4951F820000D490860A7
:10182000084600680C490860012006490870FEF768
:1018300093FF43F69920208002E045F68A602080DD
:1018400010BD0000610000207B0000207A00002015
:10185000207D0020E0000020DC0000202DE9F04188
:1018600007464FF0000800BF00BFFEF7ADFC804602
:1018700000BF00BF00203949088039490860394954
:101880000860394908603949088100BF00BF4046F7
:10189000FEF79EFC00BF00BF00BF00BFFEF794FC38
:1018A000804600BF00BF3248046800BF00BF40460A
:1018B000FEF78EFC00BF00BF20E000BF00BFFEF7B8
:1018C00083FC804600BF00BF002044F8780F2063EF
:1018D000A061A082E0826062A062FFF7EBF8206264
:1018E000783C04F164060020B081D4F8B84000BF11
:1018F00000BF4046FEF76CFC00BF00BF002CDCD1EF
:1019000000BF00BFFEF760FC804600BF00BF194863
:10191000056800BF00BF4046FEF75AFC00BF00BF8D
:1019200012E000BF00BFFEF74FFC804600BF00BFC3
:1019300005F120060020B081AD6900BF00BF404620
:10194000FEF746FC00BF00BF002DEAD102F01AF9F5
:1019500002F05CFB00203880BDE8F0819A00002096
:10196000AC000020C0000020CC000020147D00202E
:10197000B400002080000020F8B504460026694627
:10198000324800F021FCBDF8000018B1BDF800009D
:101990002080F8BD6A460021022000F063FCBDF8FB
:1019A000000018B1BDF800002080F2E700BF00BFC2
:1019B000FEF70AFC064600BF00BF0020244908606D
:1019C00000BF00BF3046FEF703FC00BF00BF00258C
:1019D0002048006820490968884205D91D480068E8
:1019E0001D490968B0FBF1F525B91A4800680A21BC
:1019F000B0FBF1F56A460021284600F033FC694649
:101A0000124800F0C1F9BDF8000018B1BDF800009F
:101A10002080BEE700BF00BFFEF7D6FB064600BF32
:101A200000BF00200D490860094800680C490860A3
:101A300001200C49087000BF00BF3046FEF7C8FB0C
:101A400000BF00BF0020208000BFA2E7A0810020CF
:101A50009C0000206071000848710008AC00002064
:101A6000A0000020A800002010B50348006810B1B5
:101A700001480068804710BD500000202DE9FF4F4D
:101A800085B004469046DDE91995159F139E002008
:101A9000029061480078002805DD47F24A1028804E
:101AA00009B0BDE8F08F1CB947F2AD102880F7E708
:101AB000B8F1000F03D147F24F102880F0E71EB9AC
:101AC00046F62F602880EBE754480068874203D22F
:101AD00046F630602880E3E71498B84203D346F610
:101AE00031602880DCE71298402803D346F2732047
:101AF0002880D5E712983F2806D14948844203D070
:101B000046F273202880CBE7204601F0C1FC00207C
:101B1000288009F0010088B109F0020070B1B346D5
:101B20000020049007E00020CBF800000BF1040B2C
:101B30000498401C04900498B842F4D3149806EB1F
:101B400080000390CDE9007932464046039B089916
:101B500000F0D2FA8346C4F828800898E06206981C
:101B60002062129884F83700C4F800B00398A0608F
:101B700017986065179818B92A480068A06501E0B1
:101B80001798A065189860606662A763A4F83C90F7
:101B90004FF0000A08E0002104F17C0040F82A1010
:101BA0000AF1010000F0FF0ABAF1000FF3D004F1CE
:101BB0006400169900F082FE204600F039F800BF5C
:101BC00000BFFEF701FB029000BF00BF94F8370092
:101BD00001F016F8204601F08BF8204601F00EFCCB
:101BE00011480088401C10490880104800780128DE
:101BF00007D000BF00BF0298FEF7EAFA00BF00BF9F
:101C00004EE700BF00BF0298FEF7E2FA00BF00BF38
:101C1000FFF7A8FC00BF43E7600000205C710008EC
:101C2000547C002088000020B800002061000020C3
:101C300010B504460348006818B1204601490968F8
:101C4000884710BD4000002070B504460D460026B0
:101C500043480078002803DD47F24E10288070BD0D
:101C60004048844203D147F24C102880F7E77CB902
:101C700000BF00BFFEF7A8FA064600BF00BF3A4803
:101C8000046800BF00BF3046FEF7A2FA00BF00BFE5
:101C900000BF00BFFEF798FA064600BF00BF94F8E9
:101CA000360008282DD2DFE800F004090E10080ADB
:101CB0000F11204601F05CF82EE02DE000BF204619
:101CC00001F044FF28E000BF00BF00BF204601F044
:101CD0003DFF94F83400082810D2DFE800F0040734
:101CE0000508090A0B0600BF00BF08E000BF00BFDF
:101CF00000BF00BF204600F0B5FE00E000BF00BFFF
:101D00000AE000BF00BF3046FEF762FA00BF00BF26
:101D100046F62D602880A2E700BF04F1640000F0C1
:101D2000ABFD204600F024F8204601F07FFB0F4871
:101D30000088401E0D490880204601F0A9FBFF20C5
:101D400084F8360000BF00BF3046FEF741FA00BFFE
:101D500000BF00202880FFF705FC00BF7FE70000E0
:101D600060000020547C0020DC000020B80000202F
:101D700010B504460348006818B1204601490968B7
:101D8000884710BD4400002070B504460D4600266B
:101D900015480078002803DD47F25510288070BDF3
:101DA00000BF00BFFEF710FA064600BF00BF1CB11F
:101DB0000E48006884420AD100BF00BF3046FEF7DB
:101DC00007FA00BF00BF47F257102880E7E700BFBF
:101DD00000BF3046FEF7FCF900BF00BF2946204691
:101DE00001F0C8FB00BFDAE760000020DC00002043
:101DF00010B504460348006818B120460149096837
:101E0000884710BD480000202DE9F04780460E4667
:101E100014461D464FF000096F480078002805DD84
:101E200046F2AE1028800020BDE8F0871EB1B6F55E
:101E3000004F02D100E000BF04E045F62560288095
:101E40000020F1E700BF0CB10020206000BF00BF00
:101E5000FEF7BAF9814600BF00BF60480068406CD9
:101E6000A8B35E480068406C401E5C49096848643D
:101E70005A480068476C1CB158480068006C2060E4
:101E8000FEF718FE55490968096C401A534909685C
:101E9000C1F8A40051480068D0F8A8004F4909686B
:101EA000D1F8A410884207D24C480068D0F8A400AA
:101EB0004A490968C1F8A80000BF00BF4846FEF7BC
:101EC00087F900BF00BF002028803846ACE7FFE755
:101ED00006F4004058B100BF00BF4846FEF778F94D
:101EE00000BF00BF46F2B010288000209CE73C48AD
:101EF000007800280BDD00BF00BF4846FEF768F9F8
:101F000000BF00BF46F66350288000208CE74346A0
:101F100007220021084600F0E5FC00BF00BF48464C
:101F2000FEF756F900BF00BFFFF71CFB00BF00BF64
:101F3000FEF74AF9814600BF00BF2848006890F8C4
:101F4000350020B1012826D0032834D12CE0FCB183
:101F500022480068006C2060FEF7ACFD1F4909684C
:101F6000096C401A1D490968C1F8A4001B480068A3
:101F7000D0F8A80019490968D1F8A410884207D2FE
:101F800016480068D0F8A40014490968C1F8A800F0
:101F90000020288013E01CB110480068006C20600D
:101FA00046F2A91028800AE00CB10020206047F218
:101FB000D920288003E046F62E60288000BF00BFAD
:101FC00006480068476C00BF00BF4846FEF700F9AE
:101FD00000BF00BF384627E760000020DC0000207B
:101FE000860000202DE9F04106460D4614461DB13D
:101FF000B5F5004F02D100E000BF05E045F62560D1
:1020000020800020BDE8F08100BFFEF753FD804630
:10201000234642462946304601F038FB07463846FB
:10202000F0E700002DE9F04705460E4617461C462E
:102030004FF0000A2E480078002804DD47F25910BE
:102040002080BDE8F0871EB946F2D5202080F8E751
:102050001FB946F2D5202080F3E700BF00BFFEF78E
:10206000B3F8824600BF00BF0DB922480568286852
:1020700068B900BF00BF5046FEF7AAF800BF00BF16
:1020800000203060386047F252102080D9E795F880
:102090003C0000F0010068B900BF00BF5046FEF7E9
:1020A00097F800BF00BF00203060386047F254103E
:1020B0002080C6E700BF00BF5046FEF789F800BF8A
:1020C00000BF4FF00008D5F8249003E009F104099F
:1020D00008F10108D9F800000028F7D0C6F8008000
:1020E000A86BA0EB080038600020208000BFA8E7A4
:1020F00060000020DC000020F0B50446DDE9055654
:1021000002EB850020F007004FF0807C071F384667
:10211000C7F800C0071F38463C60DFF8A8C0071F9B
:102120003846C7F800C04FF0123C071F3846C7F8C2
:1021300000C04FF0033C071F3846C7F800C04FF0FF
:10214000023C071F3846C7F800C0071F38463B60EF
:10215000071F384639604FF0113C071F3846C7F853
:1021600000C04FF0103C071F3846C7F800C04FF0C2
:10217000093C071F3846C7F800C04FF0083C071F4E
:102180003846C7F800C04FF0073C071F3846C7F86D
:1021900000C04FF0063C071F3846C7F800C04FF09C
:1021A000053C071F3846C7F800C04FF0043C071F26
:1021B0003846C7F800C06FF0020C071F3846C7F852
:1021C00000C0F0BD7536000870B505460C460A48DB
:1021D0000078002803DD47F25D10208070BD0748BD
:1021E000854203D147F25B102080F7E7214628465D
:1021F00001F02EFB00BFF1E760000020547C0020BE
:1022000010B51548006810B1134800688047FEF704
:1022100051FC04461148006811490968884215D0EC
:102220000E480068D0F89800201A0C490968C1F8D7
:1022300094000A480068D0F89C0008490968D1F861
:102240009410084405490968C1F89C0004480068D6
:10225000C0F8984010BD000054000020DC000020B1
:10226000E00000202DE9F04105460E461446002707
:102270002A480078002804DD47F275202080BDE858
:10228000F08127480078002803DD46F6635020805F
:10229000F5E736B1022E05D0042E0AD0082E09D15A
:1022A00001E000BF00BF1DB947F27E202080E6E7B5
:1022B00004E003E045F625602080E0E700BF00BFB2
:1022C00000BFFDF781FF074600BF00BF0120154991
:1022D000096881F8360023463246294611480068CD
:1022E00001F056FB208838B100BF00BF3846FDF72B
:1022F0006FFF00BF00BFC2E70A48006800F038FD6A
:1023000000BF00BF3846FDF763FF00BF00BFFFF707
:1023100029F90020208000BFB1E700006000002004
:1023200086000020DC0000202DE9FF5F05460E46F8
:1023300017469846DDE90EA4002000905D4800781D
:10234000002804DD47F275202080BDE8FF9F5A4831
:102350000078002803DD46F663502080F5E70AF098
:102360000E0BBBF1000F09D0BBF1020F07D0BBF180
:10237000040F10D0BBF1080F0ED101E000BF00BF69
:10238000B8F1000F06D12FB926B91DB947F27E204A
:102390002080DAE704E003E045F625602080D4E7FA
:1023A00000BF2AF01E0008B1012000E000200390C9
:1023B0000398012803D145F625602080C5E7CAF3BC
:1023C000001002900298C0B9B8F57A7F03D347F2A3
:1023D0007B202080B9E73B2F03DD47F27A20208065
:1023E000B3E73B2E03DD47F279202080ADE7632D74
:1023F00012DD47F278202080A7E742F20F70864274
:1024000003DD47F2792020809FE7B5F57A7F03DB73
:1024100047F27820208098E72848D0F800904FF4C1
:10242000FA70B0FBF9F0404400FB09F04FF47A7108
:10243000B0FBF1F14FF461606843C6EB061200EBAC
:102440008200384400FB09100190019860B300BF7E
:1024500000BFFDF7B9FE009000BF00BF0120184982
:10246000096881F8360023465A46154801990068E4
:1024700001F08EFA208838B100BF00BF0098FDF748
:10248000A7FE00BF00BF60E70D48006800F070FCC9
:1024900000BF00BF0098FDF79BFE00BF00BFFFF725
:1024A00061F80020208002E047F27E20208000BFFB
:1024B0004BE70000600000208600002060710008EB
:1024C000DC00002008B500F02BF86A4600210E4819
:1024D000FFF788FD0D49097801EB41010C4A02EB39
:1024E000810000F073FC0B480068401E0949086039
:1024F0000846006838B90848006808606A46002144
:102500000648FFF76FFD08BDE08000207A0000203C
:10251000207D0020D8000020D4000020A0810020D1
:1025200010B50348006810B101480068804710BD2D
:102530005800002010B5002400BF00BFFDF744FE86
:10254000044600BF00BF08480078401C06490870D8
:1025500000BF00BF2046FDF73BFE00BF00BFFFF7F6
:10256000B1FFFEF791FF10BD60000020244A25490D
:10257000254A264A2649274A2748284A284A294AD6
:10258000294A2A482A482B4A2B482C4A2C482D4AAB
:102590002D482E482E482F482F4A304A304A31487D
:1025A000314A324A3248334833483448344835484F
:1025B0003548364A364A374A374A3848384839481B
:1025C000394A3A4A3A4A3B483B483C483C493D48EC
:1025D0003D4A3E4A3E4A3F4A3F4A404A404A4148B5
:1025E000414A424A42484348434A444A4448454A89
:1025F000454A46484648474800BF00BF00BF7047AD
:10260000A47100080C730008A5710008A6710008E9
:10261000A8710008AC710008B0710008AD71000825
:10262000D8710008D9710008DA710008DC7100085F
:10263000DE710008E2710008E4710008047200080D
:1026400006720008087200080A7200080C7200087E
:102650000E720008107200083C7200083D720008FB
:102660003E7200084072000842720008437200087F
:102670004472000846720008487200084A72000856
:102680004C7200084E7200085072000880720008F8
:102690008172000882720008837200088472000848
:1026A0008672000888720008B0720008B1720008D3
:1026B000B2720008B3720008B4720008B672000863
:1026C000B8720008BC720008BD720008BE72000833
:1026D000BF720008C0720008C1720008C272000810
:1026E000C3720008C4720008C6720008C7720008EE
:1026F000C8720008CA720008CC720008CD720008C7
:10270000D0720008047300080573000806730008FF
:10271000087300080A7300080021034A1160034A85
:1027200011800180704700006400002068000020D4
:10273000002400BF19E000BF00BFFDF745FD0446BF
:1027400000BF00BF09480068401C084908600848ED
:102750000068401C0649086000BF00BF2046FDF726
:1027600037FD00BF00BFFEF7A7FDE4E75C000020D7
:102770009C00002010B58AB0044600200E49086075
:102780000B2000210591CDE90704069108460B496D
:1027900009680B4A12680B4B1B68CDE90132CDE981
:1027A00003103F200023084A08A100900C48FFF7BF
:1027B00065F90AB010BD00005C0000200871000837
:1027C00004710008007100083127000875432F4F7D
:1027D000532D4949492049646C65205461736B004D
:1027E000547C00200021034A1160034A11800180BB
:1027F000704700006C0000207000002070B501469A
:102800001A4D2D681DB945F21E750D8070BD184D0D
:102810002D881DB945F21D750D80F7E7134D286809
:102820002A681032124D2D886D1EACB2002308E0CC
:102830000260002545600581C560103010325D1CC6
:10284000ABB2A342F4DB0025056045600581C5609D
:10285000064D2D68074E3560054D2D88B580002545
:10286000F58035810D8000BFD0E700004071000881
:1028700038710008147D002010B5014648894B8945
:10288000002B17DD0A680C4B1B6813600A4C4B6861
:1028900023602346DB884C891B1B074CE3802346BF
:1028A0009B884C892344044CA38000234B818B815B
:1028B0000B604B6010BD0000147D002001810022E0
:1028C0004281828102604260704700000021034A19
:1028D0001160034A118001807047000074000020DD
:1028E000780000202DE9F04105460C4616461F46AB
:1028F0001548006880F8346000201349096881F8A1
:10290000350039461048006800F05CFD6CB104F1F8
:102910000808EC60012229460B48006800F016F810
:102920002946404600F06BF806E000200649096899
:10293000C88705490968086303480168204600F014
:1029400019F8BDE8F0810000DC00002010B5C28756
:10295000016300230AE000244C600C600C614C61B0
:102960000C83CC61886020315C1CA3B29342F2DB03
:1029700010BD000030B548B14568C1F8BC5000F149
:102980000804226893681D6AC56113E091F8345009
:10299000022D02D0072D08D103E007A5C1F8BC50D5
:1029A00007E007A5C1F8BC5003E008A5C1F8BC507A
:1029B00000BF00BF30BD00005461736B20510000A8
:1029C0005461736B2053656D00000000200000000F
:1029D00030B507A5C1F8BC5000F1080422681AB14F
:1029E00093681D6AC56101E001A5C56130BD0000A5
:1029F0002000000000210160416001817047F0B5B6
:102A00008E6896F8375007893FB90127078100275C
:102A10004F600F600160416023E007897F1C0781E0
:102A2000026806E0946894F83770AF4200DD02E077
:102A30005268002AF6D100BF32B900274F604368C0
:102A40000B60596041600CE017682FB911600027D6
:102A50000F604A60016004E013680B604A605960CF
:102A60001160F0BD2DE9F0410446256BE68F0AE0C8
:102A7000D5F80C8008F108072946384600F00AF816
:102A80002035701E86B2002EF2DC0020E087206325
:102A9000BDE8F08110B50489012C03D10024046045
:102AA000446011E00C6824B94A6800241460026094
:102AB0000AE04C6824B90B6800245C60436003E0C2
:102AC0000B684A685A6013600489641E04810024FC
:102AD0004C600C6010BD2DE9F84306460C461746C5
:102AE0009846089D94F83600082850D2DFE800F098
:102AF0000405080906072B2C00BF00BF00BF47E0F4
:102B000000BF94F83400032807D143463A462146D3
:102B10003046009500F03FF803E0E765A4F86080D8
:102B2000256436B12046FFF79DFF21463046FFF76A
:102B30004FFF204600F010FD00203434A07060707C
:102B400004F8340924E000BF94F83400032807D1C6
:102B500043463A4621463046009500F01CF803E013
:102B6000E765A4F860802564204600F0EFFF36B1E9
:102B70002046FFF777FF21463046FFF729FF042064
:102B80003434A0700020607004F8340900E000BF05
:102B900000BFBDE8F883F0B50446059E086BCD8FF5
:102BA0000AE0C768A74204D1046142610383C66199
:102BB00004E020306F1EBDB2002DF2DC00BFF0BD7E
:102BC00070B50025074C03E005F12000C5B2241DB7
:102BD00020680028F8D02068FDF701FB2844C5B222
:102BE000284670BD38000020002004E00021034A80
:102BF00042F82010401C0228F8D37047380000200B
:102C000030B5420900F01F030121C3F11F04A140A8
:102C1000034C54F822400C43014D45F8224030BD8E
:102C20003800002030B5420900F01F030121C3F134
:102C30001F04A140034C54F822408C43014D45F839
:102C4000224030BD380000200021034A1160034AB1
:102C50001180018070470000800000208400002067
:102C600000210AE001EB4102054B03EB8200002248
:102C70000281026042604A1CD1B24029F2D37047FF
:102C8000207D002010B5044694F83700FFF7B8FF08
:102C900094F8370005490978884203D1204600F0AE
:102CA00027F802E0204600F003F810BD7A0000206B
:102CB00010B590F8373003EB43030C4C04EB830161
:102CC0000B893BB901230B810023C36003610860BA
:102CD000486009E00B895B1C0B810B68C360002313
:102CE00003610A681061086010BD0000207D0020AB
:102CF00010B590F8373003EB43030B4C04EB830122
:102D00000B893BB901230B810023C3600361086079
:102D1000486008E00B895B1C0B810023C3604A6894
:102D20000261D060486010BD207D002010B50146D2
:102D30000C8924B1012C03D0022C0CD101E000BF7E
:102D400014E008684A6802610024C4601461D0601D
:102D50000A6048600AE008684A68C36800241C6189
:102D6000C4600261D0600B60486000BF00BF10BD4E
:102D70002DE9F041054695F8370000EB4000124977
:102D800001EB80042F69EE6887B946B900202081E5
:102D90002060606095F83700FFF744FF0EE020895F
:102DA000401E208100203061266007E02089401EFF
:102DB0002081FE600EB9676000E037610020286165
:102DC000E860BDE8F0810000207D002070B5054678
:102DD00000262E480078012800D070BD00BF00BF3B
:102DE000FDF7F2F9064600BF00BF2C683CB900BFF2
:102DF00000BF3046FDF7ECF900BF00BFEDE7244807
:102E0000844207D100BF00BF3046FDF7E1F900BFA3
:102E100000BFE2E7A06D10B1A06D401EA065A06DDF
:102E200038B100BF00BF3046FDF7D2F900BF00BF88
:102E3000D3E72889022807DA00BF00BF3046FDF734
:102E4000C7F900BF00BFC8E712480078002807DDB7
:102E500000BF00BF3046FDF7BBF900BF00BFBCE7B5
:102E60002846FFF763FF2C68606D18B90A480068B0
:102E7000A06501E0606DA06500BF00BF3046FDF7B2
:102E8000A7F900BF00BF00BFA7E700008C0000202B
:102E9000547C0020860000208800002009A1C16128
:102EA000002141610849096811B90021816105E0EB
:102EB0000549096881610449096848610249086057
:102EC0007047000020000000900000200021034A0D
:102ED0001160034A118001807047000090000020BB
:102EE000940000202DE9FF5F0446884691461D4668
:102EF0000020019000BF00BFFDF766F9019000BF00
:102F000000BF04F10807388900284FD104200128A8
:102F100004D0022814D0042834D123E0206AFF28EA
:102F20000DD100BF00BF0198FDF752F900BF00BFEF
:102F300046F6C5502880002004B0BDE8F09F22E08E
:102F40004FF6FF71206A88420BD100BF00BF019885
:102F5000FDF73EF900BF00BF46F6C55028800020AF
:102F6000EAE710E0206A401C58B900BF00BF019892
:102F7000FDF72EF900BF00BF46F6C550288000209F
:102F8000DAE700E000BF00BF206A401C2062D4F8EE
:102F900020A0C4F8249000BF00BF0198FDF718F9E5
:102FA00000BF00BF002028805046C5E708F400702D
:102FB00008B13E8900E00126D7F800B011E0DBF847
:102FC00008000290DBF80400039000231A46CDF8B5
:102FD000009020460299FFF77EFDDDF80CB0701ED0
:102FE00086B2002EEBD1D4F820A000BF00BF01981C
:102FF000FDF7EEF800BF00BF08F4004008B9FEF787
:10300000B1FA00202880504696E7000086B00020E4
:10301000009000BF06E0A9490968480001AA002104
:10302000FFF720F9A64800780128F4D101A8FEF79F
:1030300015FC0027A3480068A0490968884205D903
:10304000A04800689D490968B0FBF1F727B99D4881
:1030500000680A21B0FBF1F72EE1FDF72BFD804659
:1030600000BF00BFFDF7B0F8009000BF00BF96485A
:1030700000689649086000209349086000BF00BFBF
:103080000098FDF7A5F800BF00BF914800688F4980
:103090000968884248D98E4800688E49884205D21E
:1030A00042F2107003900120029023E088480068EB
:1030B0008949884205D24FF47A7003900A20029021
:1030C00018E0834800688549884203D26420039051
:1030D00002900FE07E4800688149884205D20A20AC
:1030E00003904FF47A70029004E00120039042F2C2
:1030F00010700290764801680298B1FBF0FA7349AB
:10310000039809684843B0FBFAF042F21071081ABC
:1031100074490880744800880988884208DA714830
:1031200000887149088003E042F210706D49088000
:10313000FEF79AFC002500BF00BFFDF745F80090A0
:1031400000BF00BF6948046800BF00BF0098FDF7DA
:103150003FF800BF00BF26E000BF00BFFDF734F816
:10316000009000BF00BF54F89C0F6060002044F83E
:103170009C0900BF00BF0098FDF72AF800BF00BF00
:10318000D4F8A000054400BF00BFFDF71DF8009073
:1031900000BF00BFD4F8B84000BF00BF0098FDF7E3
:1031A00017F800BF00BF002CD6D145B3494885426F
:1031B00005D242F2107005904FF0010B1BE046481B
:1031C000854205D24FF47A7005904FF00A0B12E059
:1031D0004248854203D26420059083460BE0404874
:1031E000854204D20A2005904FF47A7B03E0012047
:1031F000059042F2107BB5FBFBF0049003E0002049
:1032000005900120049000BF00BFFCF7DDFF009097
:1032100000BF00BF3548046800BF00BF0098FCF73E
:10322000D7FF00BF00BF2BE0D4F8A00005994843AA
:103230000499B0FBF1F086B242F21070864200D9D8
:103240000646A4F88C60B4F88E00B04201DAA4F807
:103250008E6001AB04F1AC02111D2046FEF7E2FEC8
:1032600000BF00BFFCF7B0FF009000BF00BFD4F864
:10327000B84000BF00BF0098FCF7AAFF00BF00BF26
:10328000002CD1D11A480078012805D10020184916
:10329000087001A8FEF7E2FAFDF70CFCA0EB0809A4
:1032A00014480068484502D21248C0F8009001AAAC
:1032B00000213846FEF7D6FFCFE60000487100082F
:1032C000A8000020607100089C000020A4000020DD
:1032D000A0000020801A060000093D00005A62028A
:1032E0000084D717980000209A000020B400002026
:1032F00096000020AC00002010B58AB004460020E3
:103300001F4908601F4908601F4908601F4908706D
:103310001F4908701F48006820B946F62B602080BE
:103320000AB010BD1C4800681C490968884203D2D5
:1033300046F62C602080F3E7194800783F2803D335
:1033400046F62A602080EBE7032000210591CDE9B5
:1033500007040691084610490968124A12680D4B85
:103360001B68CDE90132CDE903100D480078002338
:103370000D4A0EA100901248FEF780FB00BFCFE778
:103380009C000020A4000020A0000020A800002035
:10339000960000204C710008547100085C71000810
:1033A00044710008507100080D30000875432F4F1C
:1033B000532D4949492053746174205461736B0043
:1033C0002080002038B504460D4685B16B460222A8
:1033D0002946204600F0DCFABDF8000018B90320A9
:1033E00084F8360006E0022084F8360002E002206D
:1033F00084F836002046FFF7BBFC38BD0021C0F83A
:10340000B4100949096819B90021C0F8B81007E0DB
:1034100005490968C0F8B81003490968C1F8B40043
:103420000149086070470000B4000020D0F8B420C3
:10343000D0F8B8104AB90D4B196011B10023C1F88A
:10344000B4300023C0F8B8300FE029B90023C2F827
:10345000B830C0F8B43008E0C2F8B810C1F8B420F1
:103460000023C0F8B830C0F8B4307047B400002072
:103470000021044A1160044A1180044A116001804D
:1034800070470000B4000020B8000020B000002009
:1034900070B5044600202060A0606060E06020619C
:1034A0006061A061E06129A0206200206062A062EA
:1034B000E0622063E0872064E065A4F860000021FA
:1034C00004F16400FFF7FAF9002044F8740F60601B
:1034D000E060A0822061743C002506E0002104F138
:1034E0007C0040F82510681CC5B2002DF6D00020E5
:1034F0003434206120676067606084F85600E067BC
:10350000A06720814FF0004060610020A061E06171
:1035100020626062A4F85800A4F85A00E0652066B2
:10352000FDF7C8FA064666660020A0662070607047
:10353000A0704020E0700020C4F88000C4F884002F
:1035400004A0C4F88800343C70BD00003F5461738F
:103550006B0000002000000010B50446204600F07B
:10356000F5FA94F8360000F0040010B92046FFF791
:1035700089FB10BD70B504460D46002600BF00BF94
:10358000FCF722FE064600BF00BF0020288094F80A
:10359000360008285ED2DFE800F00405060712278F
:1035A000394B00BF00BF00BF00BF00BF3046FCF773
:1035B0000FFE00BF00BF47F25310288055E014F8FB
:1035C0008A0F401E207014F88A0928B9002084F858
:1035D00036002046FFF7C0FF00BF00BF3046FCF7B3
:1035E000F7FD00BF00BF40E014F88A0F401E2070B6
:1035F00014F88A0910B9012084F8360000BF00BF12
:103600003046FCF7E5FD00BF00BF2EE014F88A0F3E
:10361000401E207014F88A0910B9022084F8360080
:1036200000BF00BF3046FCF7D3FD00BF00BF1CE069
:1036300014F88A0F401E207014F88A0910B903206C
:1036400084F8360000BF00BF3046FCF7C1FD00BF64
:1036500000BF0AE000BF00BF3046FCF7B9FD00BF65
:1036600000BF46F62D60288070BD00BFFDF77AFFD1
:1036700000BFF9E708B504480068FEF7B9FB6946E2
:103680000020FEF7E1FA08BDDC0000202DE9F84338
:103690000446884617461D464FF0000900BF00BF8C
:1036A000FCF792FD814600BF00BF0CB96748046873
:1036B00027640020288094F83600082876D2DFE8B6
:1036C00000F0040550510607525300BF00BF00BF71
:1036D0000420012804D0022813D0042833D122E08A
:1036E000606CFF280CD100BF00BF4846FCF770FD9E
:1036F00000BF00BF46F6C55028800020BDE8F88313
:1037000022E04FF6FF71606C88420BD100BF00BF12
:103710004846FCF75DFD00BF00BF46F6C550288057
:103720000020EBE710E0606C401C58B900BF00BF00
:103730004846FCF74DFD00BF00BF46F6C550288047
:103740000020DBE700E000BF00BF606C401C60644D
:10375000666C00BF00BF4846FCF73AFD00BF00BFE3
:1037600071E000BF00BF00BF94F83400072815D1F6
:1037700000231A46214618460097FFF7ACF9666CFD
:1037800000BF00BF4846FCF723FD00BF00BF08F4A0
:10379000004000284AD1FDF7E5FE47E0042001285B
:1037A00005D0022813D0042833D122E03FE0606C1A
:1037B000FF280BD100BF00BF4846FCF709FD00BF42
:1037C00000BF46F6C5502880002097E722E04FF65C
:1037D000FF71606C88420BD100BF00BF4846FCF708
:1037E000F7FC00BF00BF46F6C5502880002085E7E3
:1037F00010E0606C401C58B900BF00BF4846FCF7A1
:10380000E7FC00BF00BF46F6C5502880002075E7E2
:1038100000E000BF00BF606C401C6064666C00BFCD
:1038200000BF4846FCF7D4FC00BF00BF0BE000BF60
:1038300000BF4846FCF7CCFC00BF00BF46F62D6039
:103840002880002600BF00BF304657E7DC0000207C
:1038500070B504460D46002600BF00BFFCF7B4FC5F
:10386000064600BF00BF0CB93D4804683C480068EC
:1038700084420ED13B48007800280ADD00BF00BF1B
:103880003046FCF7A5FC00BF00BF46F66350288019
:1038900070BD0020288094F83600082850D2DFE858
:1038A00000F0041523313F404142042084F83600E3
:1038B000012084F88A002046FFF75AFA00BF00BFB3
:1038C0003046FCF785FC00BF00BF44E0052084F8CB
:1038D0003600012084F88A0000BF00BF3046FCF7A4
:1038E00077FC00BF00BF36E0062084F836000120D8
:1038F00084F88A0000BF00BF3046FCF769FC00BFB7
:1039000000BF28E0072084F83600012084F88A00F0
:1039100000BF00BF3046FCF75BFC00BF00BF1AE0F1
:1039200000BF00BF00BF94F88A00401C84F88A00E2
:1039300000BF00BF3046FCF74BFC00BF00BF0AE0F1
:1039400000BF00BF3046FCF743FC00BF00BF46F697
:103950002D6028809CE700BFFDF704FE00BF97E7BD
:10396000DC00002086000020002108E0064A02EB6F
:10397000C100002202608280C2804A1C91B2034AC8
:1039800012889142F2DB70474C7900207871000870
:103990002DE9F04F0C4616461D46042E1ED1DFF8C9
:1039A000A091D9F80090A4EB0909A9F1010313F53E
:1039B000803F0DD94FF00009C0F84C90C0F85090EE
:1039C000C0F81C9047F27E29A5F80090BDE8F08F62
:1039D000C46403F10109C0F850903FE084B3082E9D
:1039E00025D1D0F8489009EB0407DFF85491D9F8B5
:1039F0000090A7EB0909A9F10103A34201D2C76412
:103A000006E0DFF83C91D9F80090A144C0F84C9052
:103A1000DFF82CA1D0F84C90DAF800A0A9EB0A0945
:103A2000C0F85090D0F84C90C0F8489016E0DFF8FD
:103A30001091D9F80090A144C0F84C9004650DE0B5
:103A4000FFE74FF00009C0F84C90C0F85090C0F864
:103A50001C9047F27E29A5F80090B7E7DFF8E4A0B4
:103A6000BAF800A0D0F84C90B9FBFAFB0AFB1B99FE
:103A70001FFA89F8DFF8D09009EBC802B2F8049079
:103A8000B9F1000F0BD14FF00009C0F81490C0F845
:103A9000189010604FF00109A2F804903EE0116800
:103AA00034E0DFF89CA0D1F84C90DAF800A0A9EB44
:103AB0000A09C1F85090D0F85090D1F850A0D145E3
:103AC0000ED9D1F81490B9F1000F01D049691DE069
:103AD0004FF00009C0F8149081614861002115E0A1
:103AE000D1F81890B9F1000F07D14FF00009C0F8D4
:103AF000189041618861106007E0D1F818C0C0F8E3
:103B000018C04161CCF81400886100210029C8D197
:103B1000B2F8049009F10109A2F80490B2F80690F5
:103B2000B2F804A0D14503DAB2F80490A2F80690E6
:103B3000C2614FF00009A5F8009000BF46E7000001
:103B4000BC000020787100084C79002010B5C269D3
:103B5000BAB1002404651468844205D1416911603A
:103B600039B100248C6104E0816943694B6103B180
:103B70009961002444618461C461C4649488641EB2
:103B8000948010BD002006E0054A02EBC00100222F
:103B9000CA80421C90B2034A12889042F4DB7047FC
:103BA0004C790020787100082DE9F05F4FF0000B90
:103BB00000BF00BFFCF708FB834600BF00BFFCF757
:103BC00079FF054656480068401C5549086008467C
:103BD000006854490988B0FBF1F201FB12001FFA9A
:103BE00080FA514800EBCA08D8F80040002782E06C
:103BF000002C7FD0D4F8149094F83600082875D2A1
:103C0000DFE800F00408051B063D075000BF00BFB9
:103C100000BF6CE04249E06C0968401A20654049E9
:103C2000E06C0968884206D1002084F836002046FE
:103C3000FFF792FC00E0012759E03949E06C096880
:103C4000401A20653649E06C0968884215D1002089
:103C5000E065A4F86000FCF72DFF20642046FEF725
:103C600001FF2046FFF778FC00203434A0700320C9
:103C70006070002004F8340900E0012737E028498B
:103C8000E06C0968401A20652549E06C09688842A3
:103C900006D1042084F836002046FFF757FF00E0E5
:103CA000012724E01E49E06C0968401A20651C4980
:103CB000E06C0968884217D10020E065A4F8600034
:103CC000FCF7F8FE20642046FEF7CCFE2046FFF706
:103CD0003DFF04203434A07003206070002004F8FD
:103CE000340902E006E001E0012700E000BF00BF68
:103CF0004C4600E00127002F3FF47AAFFCF7DAFED4
:103D0000461B0A480068B04201D20848066000BF5E
:103D100000BF5846FCF75CFA00BF00BFBDE8F09F4B
:103D2000BC000020787100084C790020C000002001
:103D30001CB500BF0EE001AB6A4600210846FEF745
:103D400063F8BDF8040028B903480078012801D1C0
:103D5000FFF72AFFEFE700006100002010B58AB0EE
:103D6000044600201D4908601D490860FFF7FCFD5E
:103D70001C48006820B947F2122020800AB010BD0C
:103D80001948006819490968884203D247F213208C
:103D90002080F3E7164800783F2803D347F211202C
:103DA0002080EBE70B20002105910A46CDE90704AE
:103DB00006910D4800680F4909680A4B1B68CDE958
:103DC0000131CDE903020A48007800230A4A0BA119
:103DD00000900F48FDF752FE00BFCFE7BC00002067
:103DE000C000002068710008707100085C71000854
:103DF000647100086C710008313D000875432F4F55
:103E0000532D494949205469636B205461736B00F9
:103E1000E080002070B58AB0044600203149086077
:103E20003148006840B1314800682F490968B0FB4B
:103E3000F1F02F49086006E02C4800680A21B0FB29
:103E4000F1F02B4908602A4800682A4908600020E0
:103E50002949086029490860002508E0284800EB46
:103E6000C5060020B080F0803060681C85B225480F
:103E700000888542F2DB2448006820B947F24730C9
:103E800020800AB070BD2148006821490968884235
:103E900003D247F248302080F3E71E4800783F28DD
:103EA00003D347F246302080EBE70B200021059139
:103EB000CDE907040691084614490968164A1268B4
:103EC000114B1B68CDE90132CDE903101148007890
:103ED0000023124A12A100901748FDF7CFFD00BF42
:103EE000CFE70000C4000020847100086071000862
:103EF000D4000020D8000020D0000020CC000020FA
:103F0000CC7B00209871000888710008907100082F
:103F10005C710008807100088C7100083140000855
:103F200075432F4F532D4949492054696D657220BF
:103F30005461736B00000000A0810020F0B50C46B6
:103F4000022680F82A60012C05D12D4F466A3F6871
:103F50003E4486610CE0066A2EB9294F466A3F68E6
:103F60003E44866104E0264F066A3F683E4486610F
:103F7000244F3F888669B6FBF7FC07FB1C66B5B289
:103F8000214E06EBC502166836B900260661466169
:103F90001060012696802CE0194F86693F68F61B59
:103FA000C661116820E0164F8E693F68F61BCE612E
:103FB000C669CF69BE4209D90E690EB1096913E01D
:103FC000002606614161086100210DE04E692EB9AD
:103FD0000026466101614861106004E04B6943615D
:103FE00001611861486100210029DCD19688761CA6
:103FF0009680D6889788BE4201DA9688D680F0BD32
:10400000D000002098710008CC7B0020002006E042
:10401000054A02EBC0010022CA80421C90B2034A4A
:1040200012889042F4DB7047CC7B00209871000826
:104030001CB500BF53E001AB6A4600210846FDF7FE
:10404000E3FE01A8FDF7DEFAFCF734FD064624483E
:104050000068401C22490860084600682149098818
:10406000B0FBF1F201FB12001FFA80FA1E4800EBD0
:10407000CA08D8F800404FF0000B21E0F4B1D4F8A2
:1040800010901749A0690968884214D1204600F0B1
:104090002FF8208D022804D101212046FFF74EFF82
:1040A00002E0032084F82A00A56815B12046E168E3
:1040B000A8474C4604E04FF0010B01E04FF0010B24
:1040C000BBF1000FDAD0FCF7F5FC871B01A8FDF768
:1040D000D1FA06480068B84201D204480760AAE74E
:1040E000D000002098710008CC7B0020CC0000207C
:1040F000F0B5114E36888569B5FBF6F706FB175506
:10410000ACB20E4D05EBC4021568854205D10169BC
:10411000116039B100254D6104E0416903690B610B
:1041200003B15961012580F82A50002505614561D8
:1041300095886D1E9580F0BD98710008CC7B00209D
:1041400029B1064A12680243044B1A6004E0034A8C
:1041500012688243014B1A607047000030380240F9
:1041600029B1064A12680243044B1A6004E0034A6C
:1041700012688243014B1A607047000040380240C9
:1041800029B1064A12680243044B1A6004E0034A4C
:1041900012688243014B1A607047000044380240A5
:1041A000F0B5002100220024022500260223324F10
:1041B0003F6807F00C0121B1042905D0082937D147
:1041C00005E02E4F076036E02D4F076033E02A4FA1
:1041D0003F1F3F68C7F38056274F3F1F3F6807F0D8
:1041E0003F036EB1264FB7FBF3F7DFF88CC0ACF19D
:1041F000040CDCF800C0CCF3881C07FB0CF40CE0CA
:104200001E4FB7FBF3F7DFF870C0ACF1040CDCF81D
:1042100000C0CCF3881C07FB0CF4174F3F1F3F680E
:10422000C7F301477F1C7D00B4FBF5F7076002E090
:10423000124F076000BF00BF0F4F3F6807F0F0014B
:104240000909104F7A5C0768D74047600A4F3F68FA
:1042500007F4E051890A0B4F7A5C4768D7408760C2
:10426000054F3F6807F46041490B064F7A5C476889
:10427000D740C760F0BD0000083802400024F400B9
:1042800040787D01210000201CB501210220FFF7AC
:1042900057FF01208DF8040000208DF806008DF8EE
:1042A000070003208DF805000420009069460248AD
:1042B000FCF722FD1CBD0000000402407047000016
:1042C0000420014908807047180402400420014975
:1042D000088070471A0402400149086070470000D6
:1042E000382C014001460020034A12680A400AB1F6
:1042F000012000E000207047342C014010B500F090
:1043000025F810BD29B1064A12680243044B1A6011
:1043100004E0034A12688243014B1A6070470000B0
:104320003C2C014010B50748006800F0C05040B177
:104330000120054908604FF0C25102485830FCF78F
:1043400019FC10BD006402401C00002010B54FF4A1
:104350008070FFF7C7FF50B10020254908704FF467
:104360008070FFF7B9FF01202249086037E0022082
:10437000FFF7B8FF30B10220FFF7AEFF02201C4963
:1043800008702CE00820FFF7ADFF30B10820FFF7E0
:10439000A3FF04201649087021E02020FFF7A2FFA8
:1043A00030B12020FFF798FF06201149087016E071
:1043B0001020FFF797FF30B11020FFF78DFF052089
:1043C0000B4908700BE04FF40070FFF78BFF30B122
:1043D0004FF40070FFF780FF0720054908700021A7
:1043E0004CF23A30FFF78EFF0148007810BD000014
:1043F000140000201800002070B50546002405E0D8
:10440000601CC4B2C82C01DD002070BD02210E4822
:1044100000F028F80028F3D029460B4800F02EF8C9
:10442000002405E0601CC4B2C82C01DD0020ECE7CC
:104430000121054800F016F80028F3D0024800F0EA
:104440001AF8C0B2E1E700000038004021B102884C
:1044500042F04002028004E002884FF6BF731A4027
:10446000028070470246002013890B400BB10120E7
:1044700000E00020704701468889704781817047BD
:1044800010B50022028802F441520B884C88234365
:104490008C882343CC8823430C8923434C892343B2
:1044A0008C892343CC8923431A430280838B4FF2A8
:1044B000FF74234083830B8A038210BD7047000082
:1044C0000CB50020019000903448006840F4803022
:1044D0003249086000BF3148006800F400300090A5
:1044E0000198401C0190009818B90198B0F5A04FB0
:1044F000F1D12A48006800F4003010B1012000908A
:1045000001E0002000900098012846D12348403067
:10451000006840F080502149403108602048006820
:1045200040F440401E4908601C48083000681B49A0
:10453000083108600846006840F4004008600846FA
:10454000006840F4A05008601648091F0860081F62
:10455000006840F08070091F086000BF0F480068C5
:1045600000F000700028F9D040F205700E49086094
:104570000A480830006820F0030008490831086044
:104580000846006840F00200086000BF0348083099
:10459000006800F00C000828F8D10CBD003802407B
:1045A0000070004008544007003C024010B5154818
:1045B000006840F47000134908601348006840F038
:1045C00001001149086000200F49083108600E48B9
:1045D00000680E4908400C4908600D48091D086034
:1045E000081F006820F48020091F08600020064989
:1045F0000C310860FFF764FF4FF00060014980391B
:10460000086010BD88ED00E000380240FFFFF6FEB4
:104610001030002421B1028842F08002028004E0C0
:1046200002884FF67F731A400280704721B10288DA
:1046300042F00102028004E002884FF6FE731A4045
:104640000280704731B1B0F8442042F40042A0F833
:10465000442005E0B0F84420C2F30E02A0F8442044
:104660007047000070B5002400220023058C4FF62F
:10467000FE7635400584028C8388048B4FF68F7557
:104680002C40B51E2C400D882C43751E2A408D8968
:104690002A434D882A43104DA84202D00F4DA8420C
:1046A00013D14FF6F7752A40CD892A434FF6FB7593
:1046B0002A408D882A434FF6FF652B404FF6FF5561
:1046C0002B400D8A2B434D8A2B43838004838D68B6
:1046D0004563028470BD00000000014000040140F9
:1046E0000A460021018B4FF6F773194011430183ED
:1046F0007047000070B5002400220023058C4FF69F
:10470000EF7635400584028C8388048B48F6FF756C
:104710002C404FF6FF452C400D884FF6FF7606EAF9
:1047200005252C434FF6DF752A408D8906EA0515CD
:104730002A434D8806EA05152A43154DA84202D0A2
:10474000144DA8421DD14FF67F752A40CD894FF6F2
:10475000FF7606EA05152A434FF6BF752A408D8875
:1047600006EA05152A434FF6FF352B404FF2FF7539
:104770002B400D8A06EA85052B434D8A06EA8505FE
:104780002B43838004838D688563028470BD0000A1
:1047900000000140000401400A460021018B4FF255
:1047A000FF7319404FF6FF7303EA02231943018395
:1047B0007047000070B5002400220023058C4FF6DE
:1047C000FF6635400584028C8388848B4FF68F7595
:1047D0002C404FF6FC752C400D882C434FF6FF55AE
:1047E0002A408D894FF6FF7606EA05252A434D8833
:1047F00006EA05252A43154DA84202D0144DA842C9
:104800001DD14FF2FF752A40CD894FF6FF7606EA9B
:1048100005252A434FF6FF352A408D8806EA0525EF
:104820002A434EF6FF752B404DF6FF752B400D8A3F
:1048300006EA05152B434D8A06EA05152B438380AE
:1048400084838D68C563028470BD00000000014050
:10485000000401400A460021818B4FF6F77319408E
:10486000114381837047000070B5002200230024AB
:10487000058C4EF6FF7635400584038C8488828B48
:1048800048F6FF752A404FF6FF452A400D884FF63F
:10489000FF7606EA05252A434DF6FF752B408D89E4
:1048A00006EA05352B434D8806EA05352B430A4DAC
:1048B000A84202D0094DA84208D14BF6FF752C4002
:1048C0000D8A4FF6FF7606EA85152C438480828395
:1048D0008D680564038470BD000001400004014040
:1048E0000A460021818B4FF2FF7319404FF6FF7388
:1048F00003EA0223194381837047000000220288E3
:10490000184B98420ED0184B98420BD0B0F1804F04
:1049100008D0164B984205D0154B984202D0154B43
:10492000984204D14FF68F731A404B881A43124BAA
:10493000984207D0114B984204D04FF6FF431A40DB
:104940000B891A4302804B68C3620B880385054BB1
:10495000984202D0044B984201D18B7A03860123FE
:1049600083827047000001400004014000040040C1
:1049700000080040000C00400010004000140040FF
:1049800010B5002400BF00BFFBF71EFC044600BFAB
:1049900000BFFCF763FD00BF00BF2046FBF718FC1B
:1049A00000BF00BF024800F02AF9FCF76DFD10BD02
:1049B0005C38002010B5002400BF00BFFBF704FCEA
:1049C000044600BF00BFFCF749FD00BF00BF204602
:1049D000FBF7FEFB00BF00BF024800F010F9FCF738
:1049E00053FD10BD8440002010B5002400BF00BF5F
:1049F000FBF7EAFB044600BF00BFFCF72FFD00BF3A
:104A000000BF2046FBF7E4FB00BF00BF024800F0F8
:104A1000F6F8FCF739FD10BDAC48002010B50024B5
:104A200000BF00BFFBF7D0FB044600BF00BFFCF790
:104A300015FD00BF00BF2046FBF7CAFB00BF00BF4B
:104A4000024800F0DCF8FCF71FFD10BDD450002038
:104A500001F40072B2F5007F00D100BFCA430280AA
:104A6000704721B1828942F40052828104E0828938
:104A70004DF6FF731A408281704770B502460024DC
:104A800000230025002040F66A16B14200D100BF85
:104A9000C1F3421501F01F03012606FA03F3012DAD
:104AA00002D19689334006E0022D02D1168A3340A6
:104AB00001E0968A33400C12012606FA04F41688A7
:104AC000344013B10CB1012000E0002070BDF0B5FE
:104AD0000346002400260025002040F66A17B9424C
:104AE00000D100BF1846C1F3421401F01F06012790
:104AF00007FA06F5012C01D10C3004E0022C01D19B
:104B0000103000E014301AB107682F43076002E04C
:104B10000768AF430760F0BD2DE9FF4705460E4625
:104B20000024A14600BFA046B08900B100BF2C8A76
:104B300024F44054F08804432C82AC8941F20C6088
:104B40008443B08831890843718908430443AC81A8
:104B5000AC8A24F44074B0890443AC826846FFF701
:104B60001FFB2048854202D01F48854202D1DDF854
:104B70000C9001E0DDF80890A88900F4004040B1F5
:104B800009EBC90000EB091031684900B0FBF1F7EF
:104B900007E009EBC90000EB091031688900B0FBA0
:104BA000F1F76420B7FBF0F004012009642101FB58
:104BB0001078A88900F4004040B1322000EBC80012
:104BC000B0FBF1F000F00700044308E0322000EBF6
:104BD00008106421B0FBF1F000F00F0004432C81B9
:104BE000BDE8FF870010014000140140014688889D
:104BF000C0F308007047C1F308028280704770B5A7
:104C0000044640F225512068FFF737FFE0B12068E5
:104C1000FFF7ECFFC5B2E18AA0684554E08A401C6A
:104C200080B2E082E189884201DB0020E082608B73
:104C3000E189884202DA608B401C6083606A10B1AF
:104C40002846616A884700BF40F227712068FFF755
:104C500014FF08B3A08A60B9002240F227712068CF
:104C6000FFF735FF012240F226612068FFF72FFF92
:104C700037E0638A6268D15C2068FFF7BCFF608A16
:104C8000401C80B26082A189884201DB00206082E2
:104C9000A08A401EA08224E040F226612068FFF72F
:104CA000ECFEF0B1A08A50B9002240F226612068E3
:104CB000FFF70DFF206AA0B1206A804711E0638AE8
:104CC0006268D15C2068FFF796FF608A401C80B262
:104CD0006082A189884201DB00206082A08A401E98
:104CE000A08270BD2DE9F84304460E4617464FF0EA
:104CF0000008002539E016E000BF00BFFBF764FAAA
:104D0000804600BF00BFA08A009000BF00BF4046A1
:104D1000FBF75EFA00BF00BFA089BDF80010884213
:104D200000DD01E000BFE7E700BF705D228A616837
:104D3000885400BF00BFFBF747FA804600BF00BFA2
:104D4000208A401C80B22082A189884201DB002099
:104D50002082A08A401CA08200BF00BF4046FBF713
:104D600037FA00BF00BF681C85B2BD42C3DB012219
:104D700040F227712068FFF7AAFEBDE8F883000023
:104D80002B482C4908602C4848602C4888604FF418
:104D900080608881C881002008824882C882088398
:104DA00048838882C86108624862254825490860AE
:104DB000254848602548886001208881C002C88154
:104DC000002008824882C882088348838882C8619C
:104DD000086248621E481F4908601F4848601F4813
:104DE00088604FF480608881C881002008824882F2
:104DF000C8820883488388821948C86119480862B4
:104E00001948486219481A4908601A4848601A48FF
:104E100088604FF480608881C881002008824882C1
:104E2000C882088348838882C861086248627047E4
:104E3000001001405C38002084380020843C0020B1
:104E4000004400408440002020000020AC400020AE
:104E500000480040AC480020D4480020D44C00203A
:104E6000C1420008CD420008BD42000800140140C4
:104E7000D4500020FC500020FC54002000BFFEE76E
:104E800010B50446240300F0C9F800F061F84FF4AF
:104E900080510C48FBF79BFF2020FFF7ADFAC4F3CD
:104EA0000740FFF7A9FAC4F30720FFF7A5FAE0B21D
:104EB000FFF7A2FA4FF480510248FBF78AFF00F097
:104EC00047F810BD000402402DE9F04106460C46AB
:104ED00017464FF480511148FBF779FF0320FFF785
:104EE0008BFAC4F30740FFF787FAC4F30720FFF7F4
:104EF00083FAE0B2FFF780FA002505E0FF20FFF714
:104F00007BFA7055681C85B2BD42F7DB4FF48051C7
:104F10000248FBF75EFFBDE8F0810000000402409C
:104F200010B500244FF480510848FBF750FF0520CE
:104F3000FFF762FAFF20FFF75FFA04464FF4805153
:104F40000248FBF746FF204610BD00000004024067
:104F500010B500BFFFF7E4FF00F001000028F9D111
:104F600010BD00002DE9F05F81460F461646DFF8C0
:104F7000A8B04FEA1738C7F30B0ACAF58054A64207
:104F800000DC344644E04FEA08314FF48052584682
:104F9000FFF79AFF002508E00AEB05001BF8000068
:104FA000FF2800D003E0681C85B2A542F4DB00BFF7
:104FB000A54216DA4046FFF763FF002507E019F81F
:104FC000050005EB0A010BF80100681C85B2A5423B
:104FD000F5DB4FEA08314FF48052584600F030F8C4
:104FE00004E022463946484600F02AF8A64200D19D
:104FF0000FE008F101084FF0000AA1442744301BDC
:1050000086B2B6F5805F02DD4FF4805400E034468E
:10501000B9E700BFBDE8F09FFC58002010B54FF481
:1050200080510648FBF7D3FE0620FFF7E5F94FF461
:1050300080510248FBF7CDFE10BD00000004024085
:105040002DE9F04107460E461446F0B2C0F58075D2
:10505000AC4200DC254612E02A463146384600F0D4
:1050600013F8AC4200D10BE02F442E44601B84B2F5
:10507000B4F5807F02DD4FF4807500E02546EBE754
:1050800000BFBDE8F08100002DE9F04106460C4666
:105090001746FFF7C3FF4FF480511148FBF797FE07
:1050A0000220FFF7A9F9C4F30740FFF7A5F9C4F3FD
:1050B0000720FFF7A1F9E0B2FFF79EF9002504E011
:1050C000705DFFF799F9681C85B2BD42F8DB4FF4BB
:1050D00080510348FBF77DFEFFF73AFFBDE8F08102
:1050E000000402400FB4054B10B503A9044A02980E
:1050F00000F0CAF810BC5DF814FB0000516F000806
:10510000EC00002002E008C8121F08C1002AFAD1F2
:1051100070477047002001E001C1121F002AFBD137
:10512000704700002DE9FF5FDDE90220010DDDF889
:1051300038B0024318D044F61050A1F2FF31414379
:105140000D140F98012820D0A5EB0B00401C5FEA3E
:10515000000A4FF00004474EDFF81C91A04650466D
:1051600016D5CAF1000728E00F98012443A20128B0
:1051700008D0002100980F9BC0E90021C0E902433C
:10518000BDE8FF9F6FEA0B01F4E7CBF10000DEE71B
:10519000074612E0F80707D0224633464046494604
:1051A000FBF7A5F980468946224633461046194644
:1051B000FBF79DF904460E467F10002FEAD1DDE98A
:1051C0000201BAF1000F42464B4602DAFBF78FF9B3
:1051D00001E0FBF7FEF904460E460022284BFBF7E0
:1051E0007FFA03D84FF0FF30014607E00022254B3D
:1051F00020463146FBF7D4F8FBF75AFA102409E0B1
:10520000002C0ADB0A220023FAF7F4FF019B30325C
:105210001A55641E50EA0102F2D1641C019AC4F1CD
:10522000110314440F9A012A03D0012208430DD11F
:105230000AE0084304D000204FF0110B0F9080E7E4
:10524000A3EB0B056D1E0DE05B4504DD4FF0000286
:1052500005F1010504E003DA4FF00002A5F10105B4
:10526000002AECD000980F99C0E90231C0E900454E
:1052700086E70000000024400000F03F30000000FE
:105280000000F0430000E03F2DE9FF4F95B09B4642
:105290008946064600250FE2252877D100242746B7
:1052A000F84A0121059400E0044316F8013F203B31
:1052B00001FA03F01042F7D130782A2811D06FF0AC
:1052C0002F033078A0F13002092A16D8059A44F04D
:1052D000020402EB820203EB42021044761C0590AA
:1052E000EFE759F8042B0592002A03DA504244F400
:1052F0000054059044F00204761C30782E2816D114
:1053000016F8010F44F004042A280DD06FF02F0284
:105310003078A0F13003092B09D807EB870302EBA3
:105320004303C718761CF3E759F8047B761C3078E2
:105330006C280FD006DC4C2817D068280DD06A28BE
:1053400014D104E0742810D07A280FD10DE044F471
:1053500000140AE044F4801401E044F4401472782C
:10536000824202D104F58014761C761C30786628BF
:105370000BD013DC582877D009DC002875D04528DD
:10538000F6D04628F4D047281AD19DE118E06328CA
:1053900035D0642879D0652812D195E1702873D072
:1053A00008DC6728F1D069286FD06E280DD06F28EF
:1053B00006D1B5E073282CD0752875D0782874D024
:1053C0005A46179990476D1C75E1C4F302500228A4
:1053D00009D003280DD0D9F8001004280DD00D6095
:1053E00009F1040967E1D9F80010EA17C1E9005290
:1053F000F6E7D9F800100D80F2E70D70F0E719F824
:10540000041B8DF8001000208DF80100EA460120F1
:1054100003E059F804AB4FF0FF3061074FF0000193
:1054200002D40DE008F101018846B9420FDA804547
:10543000F8DB1AF808100029F4D108E008F101019E
:1054400088468142FADB1AF808100029F6D105983F
:105450005B46A0EB080721463846179A00F094FAFD
:10546000284400EB080507E04DE029E10DE01AF8BB
:10547000010B5A4617999047B8F10108F7D25B46DD
:1054800021463846179A13E142E00A220092C4F3FB
:1054900002524FF0000A022A08D059F804CB032A1E
:1054A0004FEAEC710AD00DE029E02AE009F107018A
:1054B00021F00702F2E802C1914609E00FFA8CFCE4
:1054C0004FEAEC71042A03D14FFA8CFC4FEAEC71DD
:1054D000002907DA0A460021DCF1000C61EB020129
:1054E0002D2202E0220504D52B228DF80420012272
:1054F00003E0E20701D02022F7E7904659E00A21B5
:1055000002E010220DE010214FF0000A00910BE0A4
:1055100010224FF0000A44F004040827009203E030
:1055200008224FF0000A0092C4F30252022A05D06A
:1055300059F804CB0021032A08D009E009F107013A
:1055400021F00702F2E802C1914605E01FFA8CFC47
:10555000042A01D10CF0FF0C4FF00008220728D5D7
:10556000702806D0009B83F0100353EA0A0305D08D
:105570000EE040228DF80420012208E05CEA0102DE
:1055800006D030228DF804208DF8050002229046C6
:10559000009B83F0080353EA0A030AD15CEA010284
:1055A00001D1620705D530228DF804204FF00108A3
:1055B0007F1E582804D034A003900EA802900DE05E
:1055C00036A0F9E753466046009AFAF713FE844680
:1055D0000398825C0298401E029002705CEA01000F
:1055E000F0D1029806A9081A00F1200A600702D536
:1055F00024F4803400E00127574502DDA7EB0A00C0
:1056000000E0002000EB0A01009005984144401A98
:105610000590E00306D45B462146179A059800F0F2
:10562000B3F90544002706E001A85A46C05D179962
:1056300090476D1C7F1C4745F6DBE0030CD55B46AD
:105640002146179A059800F09FF9054404E03020A0
:105650005A46179990476D1C0099481E00900029E2
:10566000F5DC08E0029802995A460078491C02913C
:10567000179990476D1CBAF10001AAF1010AF1DCFB
:1056800065E1000009280100303132333435363706
:10569000383961626364656600000000303132337E
:1056A000343536373839414243444546000000001E
:1056B00000F058F90544761C307800287FF4ECADF2
:1056C00019B02846BDE8F08F620700D4062709F11B
:1056D000070222F0070CFCE80223E14603F0004831
:1056E0005FEA080C02D00FF2702C0DE05FEA045C58
:1056F00002D50FF2682C07E05FEAC47C02D00FF2FB
:10570000602C01E0AFF2700C4FF0FF3823F0004343
:10571000CDF850C065280CD006DC452809D04628B5
:105720001DD047283DD13DE0662818D067287ED19E
:1057300038E00021112F01DB112000E0781CCDE9B9
:10574000000106A90EA8FFF7EDFCDDE90F010E9A96
:1057500003910021009207F1010A04914DE04FF0FE
:1057600000400097CDE9011006A90EA8FFF7DAFC6A
:10577000DDE90F0203920E9B11990022DDF80CA0C7
:105780000093049211B9791C00EB010AB7EB0A00EF
:1057900004D4C0F1FF3007F1010A0490AAEB07001E
:1057A000019044E0012F00DA01270021112F01DDD3
:1057B000112000E03846CDE9000106A90EA8FFF748
:1057C000B1FCDDE90F010E9A0391002104910092D2
:1057D000BA4621070CD40399514500DA8A46BAF13A
:1057E000010F05DD009AAAF10101515C302908D0B2
:1057F000B84202DA10F1040F06DA0121CDE90110F6
:1058000015E0AAF10101E9E7002805DC049901444B
:105810000491AAEB000102E0411C514500DD8A46DB
:105820000499401A401C01904FF00040029020075C
:1058300004D40198504501DBCDF8048000208DF898
:105840004F0002980DF14F07B0F1004F25D02B20EB
:105850000E9002984FF0020800280CDA40420290A5
:105860002D200E9007E00A210298FAF707FD30314B
:10587000029007F8011DB8F10001A8F10108F2DC5F
:1058800002980028EFD1791E0E980870307800F049
:10589000200040F0450007F8020D12A8C01B00F1DF
:1058A00007081498007800B1012000EB0A01019864
:1058B00001EBE07105984144401A401E0590E00359
:1058C00006D45B462146179A059800F05DF805441A
:1058D0001498007818B15A46179990476D1CE00348
:1058E00024D55B462146179A059800F04DF80544EB
:1058F0001CE00498002807DBDDE90301884203DD92
:105900000098405C179901E0179930205A4690475B
:10591000049805F10105401C04900198401E019077
:1059200004D12E205A46179990476D1CBAF10001F8
:10593000AAF1010ADDDC05E017F8010B5A461799B8
:1059400090476D1CB8F10001A8F10108F4DC5B463A
:105950002146179A0598ABE62D0000002B000000A9
:10596000200000002DE9F041044600251E461746A0
:10597000880404D405E039462020B0476D1C641E1D
:10598000F9D52846BDE8F0812DE9F041044600250F
:105990001E469046C80301D5302700E02027880422
:1059A00004D505E041463846B0476D1C641EF9D564
:1059B0002846BDE8F081000000B587B00121022033
:1059C000FEF7BEFB01218803FEF7CAFB05220D216D
:1059D0003148FBF7D9F905220E212F48FBF7D4F9FE
:1059E00005220F212C48FBF7CFF94FF460400590BA
:1059F00002208DF8180003208DF8190000208DF882
:105A00001A008DF81B0005A92348FBF775F94FF420
:105A100060412148FBF7DDF94FF4805005900120EB
:105A20008DF8180000208DF81A0002208DF819005A
:105A300000208DF81B0005A91748FBF75DF94FF40E
:105A400080511548FBF7C5F90020ADF800004FF470
:105A50008270ADF802000020ADF804000220ADF81D
:105A600006000120ADF808004002ADF80A00002051
:105A7000ADF80C00ADF80E000720ADF81000694637
:105A80000648FEF7FDFC01210448FEF7DFFCFF207D
:105A9000FEF7B2FC07B000BD000402400038004031
:105AA0000B48807A0A4AD27A904201D1002070478E
:105AB0000748807A064A115C1046807A401CC0B2C2
:105AC00090720A2801DB002090720846EFE7000080
:105AD0004C38002010B54FF44070FBF7E1FB00F0AC
